{
    "contractName": "FundMe",
    "abi": [
        {
            "inputs": [
                {
                    "internalType": "address",
                    "name": "_priceFeed",
                    "type": "address"
                }
            ],
            "stateMutability": "nonpayable",
            "type": "constructor"
        },
        {
            "inputs": [
                {
                    "internalType": "address",
                    "name": "",
                    "type": "address"
                }
            ],
            "name": "addressToAmountFunded",
            "outputs": [
                {
                    "internalType": "uint256",
                    "name": "",
                    "type": "uint256"
                }
            ],
            "stateMutability": "view",
            "type": "function"
        },
        {
            "inputs": [],
            "name": "fund",
            "outputs": [],
            "stateMutability": "payable",
            "type": "function"
        },
        {
            "inputs": [
                {
                    "internalType": "uint256",
                    "name": "",
                    "type": "uint256"
                }
            ],
            "name": "funders",
            "outputs": [
                {
                    "internalType": "address",
                    "name": "",
                    "type": "address"
                }
            ],
            "stateMutability": "view",
            "type": "function"
        },
        {
            "inputs": [
                {
                    "internalType": "uint256",
                    "name": "ethAmount",
                    "type": "uint256"
                }
            ],
            "name": "getConversionRate",
            "outputs": [
                {
                    "internalType": "uint256",
                    "name": "",
                    "type": "uint256"
                }
            ],
            "stateMutability": "view",
            "type": "function"
        },
        {
            "inputs": [],
            "name": "getEntranceFee",
            "outputs": [
                {
                    "internalType": "uint256",
                    "name": "",
                    "type": "uint256"
                }
            ],
            "stateMutability": "view",
            "type": "function"
        },
        {
            "inputs": [],
            "name": "getPrice",
            "outputs": [
                {
                    "internalType": "uint256",
                    "name": "",
                    "type": "uint256"
                }
            ],
            "stateMutability": "view",
            "type": "function"
        },
        {
            "inputs": [],
            "name": "getVersion",
            "outputs": [
                {
                    "internalType": "uint256",
                    "name": "",
                    "type": "uint256"
                }
            ],
            "stateMutability": "view",
            "type": "function"
        },
        {
            "inputs": [],
            "name": "owner",
            "outputs": [
                {
                    "internalType": "address",
                    "name": "",
                    "type": "address"
                }
            ],
            "stateMutability": "view",
            "type": "function"
        },
        {
            "inputs": [],
            "name": "priceFeed",
            "outputs": [
                {
                    "internalType": "contract AggregatorV3Interface",
                    "name": "",
                    "type": "address"
                }
            ],
            "stateMutability": "view",
            "type": "function"
        },
        {
            "inputs": [],
            "name": "withdraw",
            "outputs": [],
            "stateMutability": "payable",
            "type": "function"
        }
    ],
    "bytecode": "608060405234801561001057600080fd5b506040516106063803806106068339818101604052602081101561003357600080fd5b5051600380546001600160a01b039092166001600160a01b031992831617905560028054909116331790556105998061006d6000396000f3fe6080604052600436106100915760003560e01c8063741bef1a11610059578063741bef1a146101395780638da5cb5b1461016a57806398d5fdca1461017f578063b60d428814610194578063dc0d3dff1461019c57610091565b806309bc33a7146100965780630d8e6e2c146100bd5780633ccfd60b146100d25780633e47d6f3146100dc5780636e5b6b281461010f575b600080fd5b3480156100a257600080fd5b506100ab6101c6565b60408051918252519081900360200190f35b3480156100c957600080fd5b506100ab6101fd565b6100da610273565b005b3480156100e857600080fd5b506100ab600480360360208110156100ff57600080fd5b50356001600160a01b031661031e565b34801561011b57600080fd5b506100ab6004803603602081101561013257600080fd5b5035610330565b34801561014557600080fd5b5061014e610350565b604080516001600160a01b039092168252519081900360200190f35b34801561017657600080fd5b5061014e61035f565b34801561018b57600080fd5b506100ab61036e565b6100da6103fb565b3480156101a857600080fd5b5061014e600480360360208110156101bf57600080fd5b50356104b8565b60006802b5e3af16b1880000816101db61036e565b9050670de0b6b3a764000081838202816101f157fe5b04600101935050505090565b6003546040805163054fd4d560e41b815290516000926001600160a01b0316916354fd4d50916004808301926020929190829003018186803b15801561024257600080fd5b505afa158015610256573d6000803e3d6000fd5b505050506040513d602081101561026c57600080fd5b5051905090565b6002546001600160a01b0316331461028a57600080fd5b60405133904780156108fc02916000818181858888f193505050501580156102b6573d6000803e3d6000fd5b5060005b6001548110156102fd576000600182815481106102d357fe5b60009182526020808320909101546001600160a01b031682528190526040812055506001016102ba565b50604080516000815260208101918290525161031b916001916104df565b50565b60006020819052908152604090205481565b60008061033b61036e565b670de0b6b3a764000093029290920492915050565b6003546001600160a01b031681565b6002546001600160a01b031681565b600080600360009054906101000a90046001600160a01b03166001600160a01b031663feaf968c6040518163ffffffff1660e01b815260040160a06040518083038186803b1580156103bf57600080fd5b505afa1580156103d3573d6000803e3d6000fd5b505050506040513d60a08110156103e957600080fd5b50602001516402540be4000291505090565b6802b5e3af16b18800008061040f34610330565b1015610462576040805162461bcd60e51b815260206004820152601b60248201527f596f75206e65656420746f207370656e64206d6f726520455448210000000000604482015290519081900360640190fd5b5033600081815260208190526040812080543401905560018054808201825591527fb10e2d527612073b26eecdfd717e6a320cf44b4afac2b0732d9fcbe2b7fa0cf60180546001600160a01b0319169091179055565b600181815481106104c557fe5b6000918252602090912001546001600160a01b0316905081565b828054828255906000526020600020908101928215610534579160200282015b8281111561053457825182546001600160a01b0319166001600160a01b039091161782556020909201916001909101906104ff565b50610540929150610544565b5090565b5b808211156105405780546001600160a01b031916815560010161054556fea2646970667358221220b74b1e996379c371f5d315202b60ce5cf3e4f5d1d03947260092ca6b3186da2364736f6c634300060c0033",
    "sourcePath": "c:/Users/harry/OneDrive/visual_studio_code/demos/brownie_fund_me/contracts/FundMe.sol",
    "compiler": {
        "name": "solc",
        "version": "0.6.12+commit.27d51765"
    },
    "functionHashes": {
        "addressToAmountFunded(address)": "3e47d6f3",
        "fund()": "b60d4288",
        "funders(uint256)": "dc0d3dff",
        "getConversionRate(uint256)": "6e5b6b28",
        "getEntranceFee()": "09bc33a7",
        "getPrice()": "98d5fdca",
        "getVersion()": "0d8e6e2c",
        "owner()": "8da5cb5b",
        "priceFeed()": "741bef1a",
        "withdraw()": "3ccfd60b"
    },
    "gasEstimates": {
        "creation": {
            "codeDepositCost": "286600",
            "executionCost": "infinite",
            "totalCost": "infinite"
        },
        "external": {
            "addressToAmountFunded(address)": "1194",
            "fund()": "infinite",
            "funders(uint256)": "2058",
            "getConversionRate(uint256)": "infinite",
            "getEntranceFee()": "infinite",
            "getPrice()": "infinite",
            "getVersion()": "infinite",
            "owner()": "1059",
            "priceFeed()": "1037",
            "withdraw()": "infinite"
        }
    }
}