{
    "contractName": "MockV3Aggregator",
    "abi": [
        {
            "inputs": [
                {
                    "internalType": "uint8",
                    "name": "_decimals",
                    "type": "uint8"
                },
                {
                    "internalType": "int256",
                    "name": "_initialAnswer",
                    "type": "int256"
                }
            ],
            "stateMutability": "nonpayable",
            "type": "constructor"
        },
        {
            "anonymous": false,
            "inputs": [
                {
                    "indexed": true,
                    "internalType": "int256",
                    "name": "current",
                    "type": "int256"
                },
                {
                    "indexed": true,
                    "internalType": "uint256",
                    "name": "roundId",
                    "type": "uint256"
                },
                {
                    "indexed": false,
                    "internalType": "uint256",
                    "name": "updatedAt",
                    "type": "uint256"
                }
            ],
            "name": "AnswerUpdated",
            "type": "event"
        },
        {
            "anonymous": false,
            "inputs": [
                {
                    "indexed": true,
                    "internalType": "uint256",
                    "name": "roundId",
                    "type": "uint256"
                },
                {
                    "indexed": true,
                    "internalType": "address",
                    "name": "startedBy",
                    "type": "address"
                },
                {
                    "indexed": false,
                    "internalType": "uint256",
                    "name": "startedAt",
                    "type": "uint256"
                }
            ],
            "name": "NewRound",
            "type": "event"
        },
        {
            "inputs": [],
            "name": "decimals",
            "outputs": [
                {
                    "internalType": "uint8",
                    "name": "",
                    "type": "uint8"
                }
            ],
            "stateMutability": "view",
            "type": "function"
        },
        {
            "inputs": [],
            "name": "description",
            "outputs": [
                {
                    "internalType": "string",
                    "name": "",
                    "type": "string"
                }
            ],
            "stateMutability": "view",
            "type": "function"
        },
        {
            "inputs": [
                {
                    "internalType": "uint256",
                    "name": "",
                    "type": "uint256"
                }
            ],
            "name": "getAnswer",
            "outputs": [
                {
                    "internalType": "int256",
                    "name": "",
                    "type": "int256"
                }
            ],
            "stateMutability": "view",
            "type": "function"
        },
        {
            "inputs": [
                {
                    "internalType": "uint80",
                    "name": "_roundId",
                    "type": "uint80"
                }
            ],
            "name": "getRoundData",
            "outputs": [
                {
                    "internalType": "uint80",
                    "name": "roundId",
                    "type": "uint80"
                },
                {
                    "internalType": "int256",
                    "name": "answer",
                    "type": "int256"
                },
                {
                    "internalType": "uint256",
                    "name": "startedAt",
                    "type": "uint256"
                },
                {
                    "internalType": "uint256",
                    "name": "updatedAt",
                    "type": "uint256"
                },
                {
                    "internalType": "uint80",
                    "name": "answeredInRound",
                    "type": "uint80"
                }
            ],
            "stateMutability": "view",
            "type": "function"
        },
        {
            "inputs": [
                {
                    "internalType": "uint256",
                    "name": "",
                    "type": "uint256"
                }
            ],
            "name": "getTimestamp",
            "outputs": [
                {
                    "internalType": "uint256",
                    "name": "",
                    "type": "uint256"
                }
            ],
            "stateMutability": "view",
            "type": "function"
        },
        {
            "inputs": [],
            "name": "latestAnswer",
            "outputs": [
                {
                    "internalType": "int256",
                    "name": "",
                    "type": "int256"
                }
            ],
            "stateMutability": "view",
            "type": "function"
        },
        {
            "inputs": [],
            "name": "latestRound",
            "outputs": [
                {
                    "internalType": "uint256",
                    "name": "",
                    "type": "uint256"
                }
            ],
            "stateMutability": "view",
            "type": "function"
        },
        {
            "inputs": [],
            "name": "latestRoundData",
            "outputs": [
                {
                    "internalType": "uint80",
                    "name": "roundId",
                    "type": "uint80"
                },
                {
                    "internalType": "int256",
                    "name": "answer",
                    "type": "int256"
                },
                {
                    "internalType": "uint256",
                    "name": "startedAt",
                    "type": "uint256"
                },
                {
                    "internalType": "uint256",
                    "name": "updatedAt",
                    "type": "uint256"
                },
                {
                    "internalType": "uint80",
                    "name": "answeredInRound",
                    "type": "uint80"
                }
            ],
            "stateMutability": "view",
            "type": "function"
        },
        {
            "inputs": [],
            "name": "latestTimestamp",
            "outputs": [
                {
                    "internalType": "uint256",
                    "name": "",
                    "type": "uint256"
                }
            ],
            "stateMutability": "view",
            "type": "function"
        },
        {
            "inputs": [
                {
                    "internalType": "int256",
                    "name": "_answer",
                    "type": "int256"
                }
            ],
            "name": "updateAnswer",
            "outputs": [],
            "stateMutability": "nonpayable",
            "type": "function"
        },
        {
            "inputs": [
                {
                    "internalType": "uint80",
                    "name": "_roundId",
                    "type": "uint80"
                },
                {
                    "internalType": "int256",
                    "name": "_answer",
                    "type": "int256"
                },
                {
                    "internalType": "uint256",
                    "name": "_timestamp",
                    "type": "uint256"
                },
                {
                    "internalType": "uint256",
                    "name": "_startedAt",
                    "type": "uint256"
                }
            ],
            "name": "updateRoundData",
            "outputs": [],
            "stateMutability": "nonpayable",
            "type": "function"
        },
        {
            "inputs": [],
            "name": "version",
            "outputs": [
                {
                    "internalType": "uint256",
                    "name": "",
                    "type": "uint256"
                }
            ],
            "stateMutability": "view",
            "type": "function"
        }
    ],
    "bytecode": "608060405234801561001057600080fd5b506040516104df3803806104df8339818101604052604081101561003357600080fd5b5080516020909101516000805460ff191660ff84161790556100548161005b565b50506100a2565b600181815542600281905560038054909201808355600090815260046020908152604080832095909555835482526005815284822083905592548152600690925291902055565b61042e806100b16000396000f3fe608060405234801561001057600080fd5b50600436106100b45760003560e01c80638205bf6a116100715780638205bf6a146101b85780639a6fc8f5146101c0578063a87a20ce1461022a578063b5ab58dc14610247578063b633620c14610264578063feaf968c14610281576100b4565b8063313ce567146100b95780634aa2011f146100d757806350d25bcd1461011157806354fd4d501461012b578063668a0f02146101335780637284e4161461013b575b600080fd5b6100c1610289565b6040805160ff9092168252519081900360200190f35b61010f600480360360808110156100ed57600080fd5b506001600160501b038135169060208101359060408101359060600135610292565b005b6101196102dc565b60408051918252519081900360200190f35b6101196102e2565b6101196102e7565b6101436102ed565b6040805160208082528351818301528351919283929083019185019080838360005b8381101561017d578181015183820152602001610165565b50505050905090810190601f1680156101aa5780820380516001836020036101000a031916815260200191505b509250505060405180910390f35b610119610324565b6101e6600480360360208110156101d657600080fd5b50356001600160501b031661032a565b60405180866001600160501b03168152602001858152602001848152602001838152602001826001600160501b031681526020019550505050505060405180910390f35b61010f6004803603602081101561024057600080fd5b5035610360565b6101196004803603602081101561025d57600080fd5b50356103a7565b6101196004803603602081101561027a57600080fd5b50356103b9565b6101e66103cb565b60005460ff1681565b6001600160501b0390931660038181556001849055600283905560009182526004602090815260408084209590955581548352600581528483209390935554815260069091522055565b60015481565b600081565b60035481565b60408051808201909152601f81527f76302e362f74657374732f4d6f636b563341676772656761746f722e736f6c00602082015290565b60025481565b6001600160501b038116600090815260046020908152604080832054600683528184205460059093529220549293919290918490565b600181815542600281905560038054909201808355600090815260046020908152604080832095909555835482526005815284822083905592548152600690925291902055565b60046020526000908152604090205481565b60056020526000908152604090205481565b6003546000818152600460209081526040808320546006835281842054600590935292205483909192939456fea26469706673582212206f9c2ebe3a0cbcc5b27826fb2a3ec58c60fe3c49d06f670afb44adac4a4e106464736f6c634300060c0033",
    "sourcePath": "c:/Users/harry/OneDrive/visual_studio_code/demos/brownie_fund_me/contracts/test/MockV3Aggregator.sol",
    "compiler": {
        "name": "solc",
        "version": "0.6.12+commit.27d51765"
    },
    "functionHashes": {
        "decimals()": "313ce567",
        "description()": "7284e416",
        "getAnswer(uint256)": "b5ab58dc",
        "getRoundData(uint80)": "9a6fc8f5",
        "getTimestamp(uint256)": "b633620c",
        "latestAnswer()": "50d25bcd",
        "latestRound()": "668a0f02",
        "latestRoundData()": "feaf968c",
        "latestTimestamp()": "8205bf6a",
        "updateAnswer(int256)": "a87a20ce",
        "updateRoundData(uint80,int256,uint256,uint256)": "4aa2011f",
        "version()": "54fd4d50"
    },
    "gasEstimates": {
        "creation": {
            "codeDepositCost": "214000",
            "executionCost": "infinite",
            "totalCost": "infinite"
        },
        "external": {
            "decimals()": "1014",
            "description()": "infinite",
            "getAnswer(uint256)": "1172",
            "getRoundData(uint80)": "3034",
            "getTimestamp(uint256)": "1194",
            "latestAnswer()": "1043",
            "latestRound()": "1087",
            "latestRoundData()": "3838",
            "latestTimestamp()": "998",
            "updateAnswer(int256)": "122899",
            "updateRoundData(uint80,int256,uint256,uint256)": "122145",
            "version()": "265"
        }
    }
}